{
  "_format": "hh3-artifact-1",
  "contractName": "PassMang",
  "sourceName": "contracts/PassMang.sol",
  "abi": [
    {
      "anonymous": false,
      "inputs": [
        {
          "indexed": false,
          "internalType": "address",
          "name": "user",
          "type": "address"
        },
        {
          "indexed": false,
          "internalType": "bytes32",
          "name": "uniqueHash",
          "type": "bytes32"
        },
        {
          "indexed": false,
          "internalType": "string",
          "name": "webUrl",
          "type": "string"
        },
        {
          "indexed": false,
          "internalType": "bytes",
          "name": "userName",
          "type": "bytes"
        },
        {
          "indexed": false,
          "internalType": "bytes",
          "name": "password",
          "type": "bytes"
        },
        {
          "indexed": false,
          "internalType": "uint256",
          "name": "timestamp",
          "type": "uint256"
        }
      ],
      "name": "passwordAddedEvent",
      "type": "event"
    },
    {
      "anonymous": false,
      "inputs": [
        {
          "indexed": false,
          "internalType": "address",
          "name": "user",
          "type": "address"
        },
        {
          "indexed": false,
          "internalType": "bytes32",
          "name": "hashedPass",
          "type": "bytes32"
        },
        {
          "indexed": false,
          "internalType": "bytes32",
          "name": "salt",
          "type": "bytes32"
        },
        {
          "indexed": false,
          "internalType": "uint256",
          "name": "timestamp",
          "type": "uint256"
        }
      ],
      "name": "userRegisteredEvent",
      "type": "event"
    },
    {
      "inputs": [
        {
          "internalType": "string",
          "name": "_webUrl",
          "type": "string"
        },
        {
          "internalType": "bytes",
          "name": "_userName",
          "type": "bytes"
        },
        {
          "internalType": "bytes",
          "name": "_password",
          "type": "bytes"
        }
      ],
      "name": "addPasswordEntry",
      "outputs": [],
      "stateMutability": "nonpayable",
      "type": "function"
    },
    {
      "inputs": [
        {
          "internalType": "uint256",
          "name": "_id",
          "type": "uint256"
        }
      ],
      "name": "getPasswordEntry",
      "outputs": [
        {
          "components": [
            {
              "internalType": "uint256",
              "name": "id",
              "type": "uint256"
            },
            {
              "internalType": "bytes32",
              "name": "uniqueHash",
              "type": "bytes32"
            },
            {
              "internalType": "string",
              "name": "webUrl",
              "type": "string"
            },
            {
              "internalType": "bytes",
              "name": "userName",
              "type": "bytes"
            },
            {
              "internalType": "bytes",
              "name": "password",
              "type": "bytes"
            },
            {
              "internalType": "uint256",
              "name": "timestamp",
              "type": "uint256"
            },
            {
              "internalType": "bool",
              "name": "isActive",
              "type": "bool"
            }
          ],
          "internalType": "struct PassMang.PasswordEntry",
          "name": "",
          "type": "tuple"
        }
      ],
      "stateMutability": "view",
      "type": "function"
    },
    {
      "inputs": [],
      "name": "getUsersAllEntries",
      "outputs": [
        {
          "components": [
            {
              "internalType": "uint256",
              "name": "id",
              "type": "uint256"
            },
            {
              "internalType": "bytes32",
              "name": "uniqueHash",
              "type": "bytes32"
            },
            {
              "internalType": "string",
              "name": "webUrl",
              "type": "string"
            },
            {
              "internalType": "bytes",
              "name": "userName",
              "type": "bytes"
            },
            {
              "internalType": "bytes",
              "name": "password",
              "type": "bytes"
            },
            {
              "internalType": "uint256",
              "name": "timestamp",
              "type": "uint256"
            },
            {
              "internalType": "bool",
              "name": "isActive",
              "type": "bool"
            }
          ],
          "internalType": "struct PassMang.PasswordEntry[]",
          "name": "",
          "type": "tuple[]"
        }
      ],
      "stateMutability": "view",
      "type": "function"
    },
    {
      "inputs": [],
      "name": "isUserRegister",
      "outputs": [
        {
          "internalType": "bool",
          "name": "",
          "type": "bool"
        }
      ],
      "stateMutability": "view",
      "type": "function"
    },
    {
      "inputs": [
        {
          "internalType": "address",
          "name": "",
          "type": "address"
        },
        {
          "internalType": "uint256",
          "name": "",
          "type": "uint256"
        }
      ],
      "name": "passwordEntries",
      "outputs": [
        {
          "internalType": "uint256",
          "name": "id",
          "type": "uint256"
        },
        {
          "internalType": "bytes32",
          "name": "uniqueHash",
          "type": "bytes32"
        },
        {
          "internalType": "string",
          "name": "webUrl",
          "type": "string"
        },
        {
          "internalType": "bytes",
          "name": "userName",
          "type": "bytes"
        },
        {
          "internalType": "bytes",
          "name": "password",
          "type": "bytes"
        },
        {
          "internalType": "uint256",
          "name": "timestamp",
          "type": "uint256"
        },
        {
          "internalType": "bool",
          "name": "isActive",
          "type": "bool"
        }
      ],
      "stateMutability": "view",
      "type": "function"
    },
    {
      "inputs": [
        {
          "internalType": "string",
          "name": "_masterPassword",
          "type": "string"
        }
      ],
      "name": "registerUser",
      "outputs": [],
      "stateMutability": "nonpayable",
      "type": "function"
    },
    {
      "inputs": [
        {
          "internalType": "address",
          "name": "",
          "type": "address"
        }
      ],
      "name": "registeredUser",
      "outputs": [
        {
          "internalType": "bool",
          "name": "",
          "type": "bool"
        }
      ],
      "stateMutability": "view",
      "type": "function"
    },
    {
      "inputs": [
        {
          "internalType": "bytes32",
          "name": "",
          "type": "bytes32"
        }
      ],
      "name": "uniqueHashExists",
      "outputs": [
        {
          "internalType": "bool",
          "name": "",
          "type": "bool"
        }
      ],
      "stateMutability": "view",
      "type": "function"
    },
    {
      "inputs": [
        {
          "internalType": "address",
          "name": "",
          "type": "address"
        }
      ],
      "name": "users",
      "outputs": [
        {
          "internalType": "bytes32",
          "name": "masterPasswordHash",
          "type": "bytes32"
        },
        {
          "internalType": "bytes32",
          "name": "salt",
          "type": "bytes32"
        },
        {
          "internalType": "uint256",
          "name": "timestamp",
          "type": "uint256"
        },
        {
          "internalType": "bool",
          "name": "isActive",
          "type": "bool"
        },
        {
          "internalType": "uint256",
          "name": "totalEntries",
          "type": "uint256"
        }
      ],
      "stateMutability": "view",
      "type": "function"
    }
  ],
  "bytecode": "0x6080604052348015600e575f5ffd5b506112f68061001c5f395ff3fe608060405234801561000f575f5ffd5b5060043610610090575f3560e01c80636069f502116100635780636069f5021461011f578063704f1b941461013f5780637aee56d514610152578063a87430ba14610169578063f21e2618146101d2575f5ffd5b80630633ed70146100945780630961b61a146100c35780633637ad53146100f5578063498afd501461010a575b5f5ffd5b6100a76100a2366004610d0a565b6101f4565b6040516100ba9796959493929190610d60565b60405180910390f35b6100e56100d1366004610dc0565b60016020525f908152604090205460ff1681565b60405190151581526020016100ba565b610108610103366004610e85565b6103e2565b005b6101126105ec565b6040516100ba9190610f91565b61013261012d366004610ff4565b610866565b6040516100ba919061100b565b61010861014d36600461101d565b610b48565b335f9081526001602052604090205460ff166100e5565b6101a8610177366004610dc0565b5f602081905290815260409020805460018201546002830154600384015460049094015492939192909160ff169085565b6040805195865260208601949094529284019190915215156060830152608082015260a0016100ba565b6100e56101e0366004610ff4565b60036020525f908152604090205460ff1681565b6002602052815f5260405f20818154811061020d575f80fd5b905f5260205f2090600702015f9150915050805f01549080600101549080600201805461023990611057565b80601f016020809104026020016040519081016040528092919081815260200182805461026590611057565b80156102b05780601f10610287576101008083540402835291602001916102b0565b820191905f5260205f20905b81548152906001019060200180831161029357829003601f168201915b5050505050908060030180546102c590611057565b80601f01602080910402602001604051908101604052809291908181526020018280546102f190611057565b801561033c5780601f106103135761010080835404028352916020019161033c565b820191905f5260205f20905b81548152906001019060200180831161031f57829003601f168201915b50505050509080600401805461035190611057565b80601f016020809104026020016040519081016040528092919081815260200182805461037d90611057565b80156103c85780601f1061039f576101008083540402835291602001916103c8565b820191905f5260205f20905b8154815290600101906020018083116103ab57829003601f168201915b50505050600583015460069093015491929160ff16905087565b335f9081526001602052604090205460ff166104195760405162461bcd60e51b81526004016104109061108f565b60405180910390fd5b335f908152602081905260408120600401805491610436836110d1565b91905055505f838360405160200161044f929190611100565b60408051601f1981840301815291815281516020928301205f818152600390935291205490915060ff16156104be5760405162461bcd60e51b8152602060048201526015602482015274456e74727920616c7265616479206578697374732160581b6044820152606401610410565b5f818152600360209081526040808320805460ff191660019081179091553384526002808452828520835160e0810185528686528487206004015481528086018881529481018b8152606082018b9052608082018a90524260a083015260c0820185905282548086018455928852959096208651600790920201908155925191830191909155915190918201906105559082611160565b506060820151600382019061056a9082611160565b506080820151600482019061057f9082611160565b5060a0820151600582015560c0909101516006909101805460ff19169115159190911790556040517f5625e268152dc9d3fa1b8fbd690de86a8f54de94905ef299e828d0f549e1e362906105de9033908490889088908890429061121b565b60405180910390a150505050565b6060610606335f9081526001602052604090205460ff1690565b6106225760405162461bcd60e51b81526004016104109061108f565b335f90815260026020908152604080832080548251818502810185019093528083529193909284015b8282101561085d578382905f5260205f2090600702016040518060e00160405290815f82015481526020016001820154815260200160028201805461068f90611057565b80601f01602080910402602001604051908101604052809291908181526020018280546106bb90611057565b80156107065780601f106106dd57610100808354040283529160200191610706565b820191905f5260205f20905b8154815290600101906020018083116106e957829003601f168201915b5050505050815260200160038201805461071f90611057565b80601f016020809104026020016040519081016040528092919081815260200182805461074b90611057565b80156107965780601f1061076d57610100808354040283529160200191610796565b820191905f5260205f20905b81548152906001019060200180831161077957829003601f168201915b505050505081526020016004820180546107af90611057565b80601f01602080910402602001604051908101604052809291908181526020018280546107db90611057565b80156108265780601f106107fd57610100808354040283529160200191610826565b820191905f5260205f20905b81548152906001019060200180831161080957829003601f168201915b5050509183525050600582015460208083019190915260069092015460ff161515604090910152908252600192909201910161064b565b50505050905090565b6108a46040518060e001604052805f81526020015f81526020016060815260200160608152602001606081526020015f81526020015f151581525090565b335f9081526001602052604090205460ff166108d25760405162461bcd60e51b81526004016104109061108f565b335f908152602081905260409020600401548211156109235760405162461bcd60e51b815260206004820152600d60248201526c4964206e6f7420666f756e642160981b6044820152606401610410565b335f90815260026020526040902061093c60018461127b565b8154811061094c5761094c611294565b905f5260205f2090600702016040518060e00160405290815f82015481526020016001820154815260200160028201805461098690611057565b80601f01602080910402602001604051908101604052809291908181526020018280546109b290611057565b80156109fd5780601f106109d4576101008083540402835291602001916109fd565b820191905f5260205f20905b8154815290600101906020018083116109e057829003601f168201915b50505050508152602001600382018054610a1690611057565b80601f0160208091040260200160405190810160405280929190818152602001828054610a4290611057565b8015610a8d5780601f10610a6457610100808354040283529160200191610a8d565b820191905f5260205f20905b815481529060010190602001808311610a7057829003601f168201915b50505050508152602001600482018054610aa690611057565b80601f0160208091040260200160405190810160405280929190818152602001828054610ad290611057565b8015610b1d5780601f10610af457610100808354040283529160200191610b1d565b820191905f5260205f20905b815481529060010190602001808311610b0057829003601f168201915b50505091835250506005820154602082015260069091015460ff16151560409091015290505b919050565b335f9081526001602052604090205460ff1615610ba75760405162461bcd60e51b815260206004820152601860248201527f5573657220616c726561647920726567697374657265642100000000000000006044820152606401610410565b5f5f610bb283610c7b565b6040805160a081018252838152602080820184815242838501818152600160608087018281525f6080808a0182815233808452838b528c84209b518c5598518b870155955160028b0155915160038a01805491151560ff1992831617905594516004909901989098558287529688902080549093169091179091558551928352928201879052938101859052908101929092529294509092507f9b7199927a3f8fdfc68f8fe2f246a68eebc21f39586f97d9d050c51d5959941d910160405180910390a1505050565b6040516bffffffffffffffffffffffff193360601b1660208201524260348201525f90819081906054016040516020818303038152906040528051906020012090505f8482604051602001610cd19291906112a8565b60408051601f198184030181529190528051602090910120959194509092505050565b80356001600160a01b0381168114610b43575f5ffd5b5f5f60408385031215610d1b575f5ffd5b610d2483610cf4565b946020939093013593505050565b5f81518084528060208401602086015e5f602082860101526020601f19601f83011685010191505092915050565b87815286602082015260e060408201525f610d7e60e0830188610d32565b8281036060840152610d908188610d32565b90508281036080840152610da48187610d32565b60a0840195909552505090151560c09091015295945050505050565b5f60208284031215610dd0575f5ffd5b610dd982610cf4565b9392505050565b634e487b7160e01b5f52604160045260245ffd5b5f82601f830112610e03575f5ffd5b8135602083015f5f67ffffffffffffffff841115610e2357610e23610de0565b50604051601f19601f85018116603f0116810181811067ffffffffffffffff82111715610e5257610e52610de0565b604052838152905080828401871015610e69575f5ffd5b838360208301375f602085830101528094505050505092915050565b5f5f5f60608486031215610e97575f5ffd5b833567ffffffffffffffff811115610ead575f5ffd5b610eb986828701610df4565b935050602084013567ffffffffffffffff811115610ed5575f5ffd5b610ee186828701610df4565b925050604084013567ffffffffffffffff811115610efd575f5ffd5b610f0986828701610df4565b9150509250925092565b80518252602081015160208301525f604082015160e06040850152610f3b60e0850182610d32565b905060608301518482036060860152610f548282610d32565b91505060808301518482036080860152610f6e8282610d32565b91505060a083015160a085015260c0830151151560c08501528091505092915050565b5f602082016020835280845180835260408501915060408160051b8601019250602086015f5b82811015610fe857603f19878603018452610fd3858351610f13565b94506020938401939190910190600101610fb7565b50929695505050505050565b5f60208284031215611004575f5ffd5b5035919050565b602081525f610dd96020830184610f13565b5f6020828403121561102d575f5ffd5b813567ffffffffffffffff811115611043575f5ffd5b61104f84828501610df4565b949350505050565b600181811c9082168061106b57607f821691505b60208210810361108957634e487b7160e01b5f52602260045260245ffd5b50919050565b60208082526014908201527355736572206e6f7420726567697374657265642160601b604082015260600190565b634e487b7160e01b5f52601160045260245ffd5b5f600182016110e2576110e26110bd565b5060010190565b5f81518060208401855e5f93019283525090919050565b5f61104f61110e83866110e9565b846110e9565b601f82111561115b57805f5260205f20601f840160051c810160208510156111395750805b601f840160051c820191505b81811015611158575f8155600101611145565b50505b505050565b815167ffffffffffffffff81111561117a5761117a610de0565b61118e816111888454611057565b84611114565b6020601f8211600181146111c0575f83156111a95750848201515b5f19600385901b1c1916600184901b178455611158565b5f84815260208120601f198516915b828110156111ef57878501518255602094850194600190920191016111cf565b508482101561120c57868401515f19600387901b60f8161c191681555b50505050600190811b01905550565b60018060a01b038716815285602082015260c060408201525f61124160c0830187610d32565b82810360608401526112538187610d32565b905082810360808401526112678186610d32565b9150508260a0830152979650505050505050565b8181038181111561128e5761128e6110bd565b92915050565b634e487b7160e01b5f52603260045260245ffd5b5f6112b382856110e9565b928352505060200191905056fea26469706673582212203a726f08264748bceced28f80064820839448c5292bba111b5c999022669dedb64736f6c634300081c0033",
  "linkReferences": {},
  "deployedLinkReferences": {},
  "immutableReferences": {},
  "inputSourceName": "project/contracts/PassMang.sol",
  "buildInfoId": "solc-0_8_28-64d8c7aa6ed70979bdf3deee00b8a07459c6e3dd"
}